{
  "address": "0x7a32426Ca3478cCfdE8632f09019bF489b53B9FD",
  "abi": [
    {
      "inputs": [],
      "stateMutability": "nonpayable",
      "type": "constructor"
    },
    {
      "anonymous": false,
      "inputs": [
        {
          "indexed": true,
          "internalType": "address",
          "name": "account",
          "type": "address"
        },
        {
          "indexed": true,
          "internalType": "address",
          "name": "operator",
          "type": "address"
        },
        {
          "indexed": false,
          "internalType": "bool",
          "name": "approved",
          "type": "bool"
        }
      ],
      "name": "ApprovalForAll",
      "type": "event"
    },
    {
      "anonymous": false,
      "inputs": [
        {
          "indexed": true,
          "internalType": "address",
          "name": "previousOwner",
          "type": "address"
        },
        {
          "indexed": true,
          "internalType": "address",
          "name": "newOwner",
          "type": "address"
        }
      ],
      "name": "OwnershipTransferred",
      "type": "event"
    },
    {
      "anonymous": false,
      "inputs": [
        {
          "indexed": true,
          "internalType": "address",
          "name": "operator",
          "type": "address"
        },
        {
          "indexed": true,
          "internalType": "address",
          "name": "from",
          "type": "address"
        },
        {
          "indexed": true,
          "internalType": "address",
          "name": "to",
          "type": "address"
        },
        {
          "indexed": false,
          "internalType": "uint256[]",
          "name": "ids",
          "type": "uint256[]"
        },
        {
          "indexed": false,
          "internalType": "uint256[]",
          "name": "values",
          "type": "uint256[]"
        }
      ],
      "name": "TransferBatch",
      "type": "event"
    },
    {
      "anonymous": false,
      "inputs": [
        {
          "indexed": true,
          "internalType": "address",
          "name": "operator",
          "type": "address"
        },
        {
          "indexed": true,
          "internalType": "address",
          "name": "from",
          "type": "address"
        },
        {
          "indexed": true,
          "internalType": "address",
          "name": "to",
          "type": "address"
        },
        {
          "indexed": false,
          "internalType": "uint256",
          "name": "id",
          "type": "uint256"
        },
        {
          "indexed": false,
          "internalType": "uint256",
          "name": "value",
          "type": "uint256"
        }
      ],
      "name": "TransferSingle",
      "type": "event"
    },
    {
      "anonymous": false,
      "inputs": [
        {
          "indexed": false,
          "internalType": "string",
          "name": "value",
          "type": "string"
        },
        {
          "indexed": true,
          "internalType": "uint256",
          "name": "id",
          "type": "uint256"
        }
      ],
      "name": "URI",
      "type": "event"
    },
    {
      "inputs": [],
      "name": "FUEL_GENERATOR",
      "outputs": [
        {
          "internalType": "address",
          "name": "",
          "type": "address"
        }
      ],
      "stateMutability": "view",
      "type": "function"
    },
    {
      "inputs": [],
      "name": "HYDROGEN_FUEL",
      "outputs": [
        {
          "internalType": "uint256",
          "name": "",
          "type": "uint256"
        }
      ],
      "stateMutability": "view",
      "type": "function"
    },
    {
      "inputs": [],
      "name": "RENEWABLES",
      "outputs": [
        {
          "internalType": "uint256",
          "name": "",
          "type": "uint256"
        }
      ],
      "stateMutability": "view",
      "type": "function"
    },
    {
      "inputs": [],
      "name": "RENEWABLES_PROVIDER",
      "outputs": [
        {
          "internalType": "address",
          "name": "",
          "type": "address"
        }
      ],
      "stateMutability": "view",
      "type": "function"
    },
    {
      "inputs": [],
      "name": "WATER",
      "outputs": [
        {
          "internalType": "uint256",
          "name": "",
          "type": "uint256"
        }
      ],
      "stateMutability": "view",
      "type": "function"
    },
    {
      "inputs": [],
      "name": "WATER_PROVIDER",
      "outputs": [
        {
          "internalType": "address",
          "name": "",
          "type": "address"
        }
      ],
      "stateMutability": "view",
      "type": "function"
    },
    {
      "inputs": [
        {
          "internalType": "address",
          "name": "account",
          "type": "address"
        },
        {
          "internalType": "uint256",
          "name": "id",
          "type": "uint256"
        }
      ],
      "name": "balanceOf",
      "outputs": [
        {
          "internalType": "uint256",
          "name": "",
          "type": "uint256"
        }
      ],
      "stateMutability": "view",
      "type": "function"
    },
    {
      "inputs": [
        {
          "internalType": "address[]",
          "name": "accounts",
          "type": "address[]"
        },
        {
          "internalType": "uint256[]",
          "name": "ids",
          "type": "uint256[]"
        }
      ],
      "name": "balanceOfBatch",
      "outputs": [
        {
          "internalType": "uint256[]",
          "name": "",
          "type": "uint256[]"
        }
      ],
      "stateMutability": "view",
      "type": "function"
    },
    {
      "inputs": [],
      "name": "decimalUnit",
      "outputs": [
        {
          "internalType": "uint256",
          "name": "",
          "type": "uint256"
        }
      ],
      "stateMutability": "view",
      "type": "function"
    },
    {
      "inputs": [],
      "name": "electricityRequired",
      "outputs": [
        {
          "internalType": "uint256",
          "name": "",
          "type": "uint256"
        }
      ],
      "stateMutability": "view",
      "type": "function"
    },
    {
      "inputs": [],
      "name": "h2Token",
      "outputs": [
        {
          "internalType": "contract IERC1155",
          "name": "",
          "type": "address"
        }
      ],
      "stateMutability": "view",
      "type": "function"
    },
    {
      "inputs": [
        {
          "internalType": "address",
          "name": "account",
          "type": "address"
        },
        {
          "internalType": "address",
          "name": "operator",
          "type": "address"
        }
      ],
      "name": "isApprovedForAll",
      "outputs": [
        {
          "internalType": "bool",
          "name": "",
          "type": "bool"
        }
      ],
      "stateMutability": "view",
      "type": "function"
    },
    {
      "inputs": [
        {
          "internalType": "uint256",
          "name": "_amountEnergy",
          "type": "uint256"
        }
      ],
      "name": "mintEnergy",
      "outputs": [],
      "stateMutability": "nonpayable",
      "type": "function"
    },
    {
      "inputs": [],
      "name": "mintHydrogen",
      "outputs": [],
      "stateMutability": "nonpayable",
      "type": "function"
    },
    {
      "inputs": [
        {
          "internalType": "uint256",
          "name": "_amountWater",
          "type": "uint256"
        }
      ],
      "name": "mintWater",
      "outputs": [],
      "stateMutability": "nonpayable",
      "type": "function"
    },
    {
      "inputs": [],
      "name": "owner",
      "outputs": [
        {
          "internalType": "address",
          "name": "",
          "type": "address"
        }
      ],
      "stateMutability": "view",
      "type": "function"
    },
    {
      "inputs": [],
      "name": "renounceOwnership",
      "outputs": [],
      "stateMutability": "nonpayable",
      "type": "function"
    },
    {
      "inputs": [
        {
          "internalType": "address",
          "name": "from",
          "type": "address"
        },
        {
          "internalType": "address",
          "name": "to",
          "type": "address"
        },
        {
          "internalType": "uint256[]",
          "name": "ids",
          "type": "uint256[]"
        },
        {
          "internalType": "uint256[]",
          "name": "amounts",
          "type": "uint256[]"
        },
        {
          "internalType": "bytes",
          "name": "data",
          "type": "bytes"
        }
      ],
      "name": "safeBatchTransferFrom",
      "outputs": [],
      "stateMutability": "nonpayable",
      "type": "function"
    },
    {
      "inputs": [
        {
          "internalType": "address",
          "name": "from",
          "type": "address"
        },
        {
          "internalType": "address",
          "name": "to",
          "type": "address"
        },
        {
          "internalType": "uint256",
          "name": "id",
          "type": "uint256"
        },
        {
          "internalType": "uint256",
          "name": "amount",
          "type": "uint256"
        },
        {
          "internalType": "bytes",
          "name": "data",
          "type": "bytes"
        }
      ],
      "name": "safeTransferFrom",
      "outputs": [],
      "stateMutability": "nonpayable",
      "type": "function"
    },
    {
      "inputs": [
        {
          "internalType": "address",
          "name": "operator",
          "type": "address"
        },
        {
          "internalType": "bool",
          "name": "approved",
          "type": "bool"
        }
      ],
      "name": "setApprovalForAll",
      "outputs": [],
      "stateMutability": "nonpayable",
      "type": "function"
    },
    {
      "inputs": [
        {
          "internalType": "uint256",
          "name": "_electricityRequired",
          "type": "uint256"
        }
      ],
      "name": "setElectricityRequirement",
      "outputs": [],
      "stateMutability": "nonpayable",
      "type": "function"
    },
    {
      "inputs": [
        {
          "internalType": "address",
          "name": "_energy",
          "type": "address"
        }
      ],
      "name": "setEnergyProvider",
      "outputs": [],
      "stateMutability": "nonpayable",
      "type": "function"
    },
    {
      "inputs": [
        {
          "internalType": "address",
          "name": "_fuel",
          "type": "address"
        }
      ],
      "name": "setFuelProvider",
      "outputs": [],
      "stateMutability": "nonpayable",
      "type": "function"
    },
    {
      "inputs": [
        {
          "internalType": "address",
          "name": "_water",
          "type": "address"
        }
      ],
      "name": "setWaterProvider",
      "outputs": [],
      "stateMutability": "nonpayable",
      "type": "function"
    },
    {
      "inputs": [
        {
          "internalType": "uint256",
          "name": "_waterRequired",
          "type": "uint256"
        }
      ],
      "name": "setWaterRequirement",
      "outputs": [],
      "stateMutability": "nonpayable",
      "type": "function"
    },
    {
      "inputs": [
        {
          "internalType": "bytes4",
          "name": "interfaceId",
          "type": "bytes4"
        }
      ],
      "name": "supportsInterface",
      "outputs": [
        {
          "internalType": "bool",
          "name": "",
          "type": "bool"
        }
      ],
      "stateMutability": "view",
      "type": "function"
    },
    {
      "inputs": [
        {
          "internalType": "address",
          "name": "newOwner",
          "type": "address"
        }
      ],
      "name": "transferOwnership",
      "outputs": [],
      "stateMutability": "nonpayable",
      "type": "function"
    },
    {
      "inputs": [
        {
          "internalType": "uint256",
          "name": "",
          "type": "uint256"
        }
      ],
      "name": "uri",
      "outputs": [
        {
          "internalType": "string",
          "name": "",
          "type": "string"
        }
      ],
      "stateMutability": "view",
      "type": "function"
    },
    {
      "inputs": [],
      "name": "waterRequired",
      "outputs": [
        {
          "internalType": "uint256",
          "name": "",
          "type": "uint256"
        }
      ],
      "stateMutability": "view",
      "type": "function"
    }
  ],
  "transactionHash": "0x53dd15ccb148fae0b59a4edaadc26dfa3d9c4b669b75169099e7cf3d79437cfe",
  "args": [],
  "numDeployments": 1,
  "solcInputHash": "f49b5adc97a4af2fe10474c38f05ef7f",
  "bytecode": "0x60806040526127106008553480156200001757600080fd5b50604051806020016040528060008152506200003981620000b560201b60201c565b506200005a6200004e620000ca60201b60201c565b620000d260201b60201c565b30600460006101000a81548173ffffffffffffffffffffffffffffffffffffffff021916908373ffffffffffffffffffffffffffffffffffffffff1602179055506201aa3260098190555062086470600a81905550620004f9565b8060029081620000c6919062000412565b5050565b600033905090565b6000600360009054906101000a900473ffffffffffffffffffffffffffffffffffffffff16905081600360006101000a81548173ffffffffffffffffffffffffffffffffffffffff021916908373ffffffffffffffffffffffffffffffffffffffff1602179055508173ffffffffffffffffffffffffffffffffffffffff168173ffffffffffffffffffffffffffffffffffffffff167f8be0079c531659141344cd1fd0a4f28419497f9722a3daafe3b4186f6b6457e060405160405180910390a35050565b600081519050919050565b7f4e487b7100000000000000000000000000000000000000000000000000000000600052604160045260246000fd5b7f4e487b7100000000000000000000000000000000000000000000000000000000600052602260045260246000fd5b600060028204905060018216806200021a57607f821691505b60208210810362000230576200022f620001d2565b5b50919050565b60008190508160005260206000209050919050565b60006020601f8301049050919050565b600082821b905092915050565b6000600883026200029a7fffffffffffffffffffffffffffffffffffffffffffffffffffffffffffffffff826200025b565b620002a686836200025b565b95508019841693508086168417925050509392505050565b6000819050919050565b6000819050919050565b6000620002f3620002ed620002e784620002be565b620002c8565b620002be565b9050919050565b6000819050919050565b6200030f83620002d2565b620003276200031e82620002fa565b84845462000268565b825550505050565b600090565b6200033e6200032f565b6200034b81848462000304565b505050565b5b8181101562000373576200036760008262000334565b60018101905062000351565b5050565b601f821115620003c2576200038c8162000236565b62000397846200024b565b81016020851015620003a7578190505b620003bf620003b6856200024b565b83018262000350565b50505b505050565b600082821c905092915050565b6000620003e760001984600802620003c7565b1980831691505092915050565b6000620004028383620003d4565b9150826002028217905092915050565b6200041d8262000198565b67ffffffffffffffff811115620004395762000438620001a3565b5b62000445825462000201565b6200045282828562000377565b600060209050601f8311600181146200048a576000841562000475578287015190505b620004818582620003f4565b865550620004f1565b601f1984166200049a8662000236565b60005b82811015620004c4578489015182556001820191506020850194506020810190506200049d565b86831015620004e45784890151620004e0601f891682620003d4565b8355505b6001600288020188555050505b505050505050565b613f2880620005096000396000f3fe608060405234801561001057600080fd5b50600436106101ce5760003560e01c806369cbc2a411610104578063ce93c254116100a2578063e985e9c511610071578063e985e9c5146104cf578063f242432a146104ff578063f28bc50a1461051b578063f2fde38b14610539576101ce565b8063ce93c2541461045d578063de2e84dc1461047b578063e4ae4ec014610497578063e70b5c9f146104b3576101ce565b80638da5cb5b116100de5780638da5cb5b146103e7578063a22cb46514610405578063b07c7f6014610421578063c7fa8c3a1461043f576101ce565b806369cbc2a4146103a3578063715018a6146103bf5780638d172cb1146103c9576101ce565b80632eb2c2d6116101715780634e1273f41161014b5780634e1273f41461031b5780635691dfe01461034b5780635d346208146103695780636908d06414610385576101ce565b80632eb2c2d6146102c55780633d7a5984146102e157806346894119146102ff576101ce565b806309dc78c9116101ad57806309dc78c91461024f5780630e89341c1461026d5780630fe4ba981461029d5780631a520165146102a7576101ce565b8062fdd58e146101d357806301ffc9a7146102035780630885bd2b14610233575b600080fd5b6101ed60048036038101906101e891906126d6565b610555565b6040516101fa9190612725565b60405180910390f35b61021d60048036038101906102189190612798565b61061d565b60405161022a91906127e0565b60405180910390f35b61024d600480360381019061024891906127fb565b6106ff565b005b6102576107ba565b6040516102649190612725565b60405180910390f35b61028760048036038101906102829190612828565b6107c0565b60405161029491906128e5565b60405180910390f35b6102a5610854565b005b6102af610b58565b6040516102bc9190612725565b60405180910390f35b6102df60048036038101906102da9190612b04565b610b5d565b005b6102e9610bfe565b6040516102f69190612725565b60405180910390f35b61031960048036038101906103149190612828565b610c04565b005b61033560048036038101906103309190612c96565b610ce1565b6040516103429190612dcc565b60405180910390f35b610353610dfa565b6040516103609190612725565b60405180910390f35b610383600480360381019061037e91906127fb565b610dff565b005b61038d610eba565b60405161039a9190612dfd565b60405180910390f35b6103bd60048036038101906103b891906127fb565b610ee0565b005b6103c7610f9b565b005b6103d1610faf565b6040516103de9190612dfd565b60405180910390f35b6103ef610fd5565b6040516103fc9190612dfd565b60405180910390f35b61041f600480360381019061041a9190612e44565b610fff565b005b610429611015565b6040516104369190612725565b60405180910390f35b61044761101a565b6040516104549190612ee3565b60405180910390f35b610465611040565b6040516104729190612dfd565b60405180910390f35b61049560048036038101906104909190612828565b611066565b005b6104b160048036038101906104ac9190612828565b611158565b005b6104cd60048036038101906104c89190612828565b61124a565b005b6104e960048036038101906104e49190612efe565b611327565b6040516104f691906127e0565b60405180910390f35b61051960048036038101906105149190612f3e565b6113bb565b005b61052361145c565b6040516105309190612725565b60405180910390f35b610553600480360381019061054e91906127fb565b611462565b005b60008073ffffffffffffffffffffffffffffffffffffffff168373ffffffffffffffffffffffffffffffffffffffff16036105c5576040517f08c379a00000000000000000000000000000000000000000000000000000000081526004016105bc90613047565b60405180910390fd5b60008083815260200190815260200160002060008473ffffffffffffffffffffffffffffffffffffffff1673ffffffffffffffffffffffffffffffffffffffff16815260200190815260200160002054905092915050565b60007fd9b67a26000000000000000000000000000000000000000000000000000000007bffffffffffffffffffffffffffffffffffffffffffffffffffffffff1916827bffffffffffffffffffffffffffffffffffffffffffffffffffffffff191614806106e857507f0e89341c000000000000000000000000000000000000000000000000000000007bffffffffffffffffffffffffffffffffffffffffffffffffffffffff1916827bffffffffffffffffffffffffffffffffffffffffffffffffffffffff1916145b806106f857506106f7826114e5565b5b9050919050565b61070761154f565b600073ffffffffffffffffffffffffffffffffffffffff168173ffffffffffffffffffffffffffffffffffffffff1603610776576040517f08c379a000000000000000000000000000000000000000000000000000000000815260040161076d906130b3565b60405180910390fd5b80600760006101000a81548173ffffffffffffffffffffffffffffffffffffffff021916908373ffffffffffffffffffffffffffffffffffffffff16021790555050565b60095481565b6060600280546107cf90613102565b80601f01602080910402602001604051908101604052809291908181526020018280546107fb90613102565b80156108485780601f1061081d57610100808354040283529160200191610848565b820191906000526020600020905b81548152906001019060200180831161082b57829003601f168201915b50505050509050919050565b600760009054906101000a900473ffffffffffffffffffffffffffffffffffffffff1673ffffffffffffffffffffffffffffffffffffffff163373ffffffffffffffffffffffffffffffffffffffff16146108e4576040517f08c379a00000000000000000000000000000000000000000000000000000000081526004016108db9061317f565b60405180910390fd5b6000600460009054906101000a900473ffffffffffffffffffffffffffffffffffffffff1673ffffffffffffffffffffffffffffffffffffffff1662fdd58e3360006040518363ffffffff1660e01b815260040161094392919061319f565b602060405180830381865afa158015610960573d6000803e3d6000fd5b505050506040513d601f19601f8201168201806040525081019061098491906131dd565b90506000600460009054906101000a900473ffffffffffffffffffffffffffffffffffffffff1673ffffffffffffffffffffffffffffffffffffffff1662fdd58e3360016040518363ffffffff1660e01b81526004016109e592919061319f565b602060405180830381865afa158015610a02573d6000803e3d6000fd5b505050506040513d601f19601f82011682018060405250810190610a2691906131dd565b9050600954821015610a6d576040517f08c379a0000000000000000000000000000000000000000000000000000000008152600401610a6490613256565b60405180910390fd5b600a54811015610ab2576040517f08c379a0000000000000000000000000000000000000000000000000000000008152600401610aa9906132c2565b60405180910390fd5b600060095483610ac29190613340565b90506000600a5483610ad49190613340565b90506000610ae283836115cd565b9050600060085482610af49190613371565b9050600060095483610b069190613371565b90506000600a5484610b189190613371565b9050610b3633600285604051806020016040528060008152506115e7565b610b4233600084611797565b610b4e33600183611797565b5050505050505050565b600281565b610b656119dd565b73ffffffffffffffffffffffffffffffffffffffff168573ffffffffffffffffffffffffffffffffffffffff161480610bab5750610baa85610ba56119dd565b611327565b5b610bea576040517f08c379a0000000000000000000000000000000000000000000000000000000008152600401610be190613425565b60405180910390fd5b610bf785858585856119e5565b5050505050565b600a5481565b600760009054906101000a900473ffffffffffffffffffffffffffffffffffffffff1673ffffffffffffffffffffffffffffffffffffffff163373ffffffffffffffffffffffffffffffffffffffff1614610c94576040517f08c379a0000000000000000000000000000000000000000000000000000000008152600401610c8b9061317f565b60405180910390fd5b60008103610cd7576040517f08c379a0000000000000000000000000000000000000000000000000000000008152600401610cce90613491565b60405180910390fd5b8060098190555050565b60608151835114610d27576040517f08c379a0000000000000000000000000000000000000000000000000000000008152600401610d1e90613523565b60405180910390fd5b6000835167ffffffffffffffff811115610d4457610d4361290c565b5b604051908082528060200260200182016040528015610d725781602001602082028036833780820191505090505b50905060005b8451811015610def57610dbf858281518110610d9757610d96613543565b5b6020026020010151858381518110610db257610db1613543565b5b6020026020010151610555565b828281518110610dd257610dd1613543565b5b60200260200101818152505080610de890613572565b9050610d78565b508091505092915050565b600081565b610e0761154f565b600073ffffffffffffffffffffffffffffffffffffffff168173ffffffffffffffffffffffffffffffffffffffff1603610e76576040517f08c379a0000000000000000000000000000000000000000000000000000000008152600401610e6d906130b3565b60405180910390fd5b80600560006101000a81548173ffffffffffffffffffffffffffffffffffffffff021916908373ffffffffffffffffffffffffffffffffffffffff16021790555050565b600560009054906101000a900473ffffffffffffffffffffffffffffffffffffffff1681565b610ee861154f565b600073ffffffffffffffffffffffffffffffffffffffff168173ffffffffffffffffffffffffffffffffffffffff1603610f57576040517f08c379a0000000000000000000000000000000000000000000000000000000008152600401610f4e906130b3565b60405180910390fd5b80600660006101000a81548173ffffffffffffffffffffffffffffffffffffffff021916908373ffffffffffffffffffffffffffffffffffffffff16021790555050565b610fa361154f565b610fad6000611d06565b565b600660009054906101000a900473ffffffffffffffffffffffffffffffffffffffff1681565b6000600360009054906101000a900473ffffffffffffffffffffffffffffffffffffffff16905090565b61101161100a6119dd565b8383611dcc565b5050565b600181565b600460009054906101000a900473ffffffffffffffffffffffffffffffffffffffff1681565b600760009054906101000a900473ffffffffffffffffffffffffffffffffffffffff1681565b600660009054906101000a900473ffffffffffffffffffffffffffffffffffffffff1673ffffffffffffffffffffffffffffffffffffffff163373ffffffffffffffffffffffffffffffffffffffff16146110f6576040517f08c379a00000000000000000000000000000000000000000000000000000000081526004016110ed9061317f565b60405180910390fd5b60008103611139576040517f08c379a000000000000000000000000000000000000000000000000000000000815260040161113090613606565b60405180910390fd5b61115533600183604051806020016040528060008152506115e7565b50565b600560009054906101000a900473ffffffffffffffffffffffffffffffffffffffff1673ffffffffffffffffffffffffffffffffffffffff163373ffffffffffffffffffffffffffffffffffffffff16146111e8576040517f08c379a00000000000000000000000000000000000000000000000000000000081526004016111df9061317f565b60405180910390fd5b6000810361122b576040517f08c379a000000000000000000000000000000000000000000000000000000000815260040161122290613606565b60405180910390fd5b61124733600083604051806020016040528060008152506115e7565b50565b600760009054906101000a900473ffffffffffffffffffffffffffffffffffffffff1673ffffffffffffffffffffffffffffffffffffffff163373ffffffffffffffffffffffffffffffffffffffff16146112da576040517f08c379a00000000000000000000000000000000000000000000000000000000081526004016112d19061317f565b60405180910390fd5b6000810361131d576040517f08c379a000000000000000000000000000000000000000000000000000000000815260040161131490613491565b60405180910390fd5b80600a8190555050565b6000600160008473ffffffffffffffffffffffffffffffffffffffff1673ffffffffffffffffffffffffffffffffffffffff16815260200190815260200160002060008373ffffffffffffffffffffffffffffffffffffffff1673ffffffffffffffffffffffffffffffffffffffff16815260200190815260200160002060009054906101000a900460ff16905092915050565b6113c36119dd565b73ffffffffffffffffffffffffffffffffffffffff168573ffffffffffffffffffffffffffffffffffffffff1614806114095750611408856114036119dd565b611327565b5b611448576040517f08c379a000000000000000000000000000000000000000000000000000000000815260040161143f90613425565b60405180910390fd5b6114558585858585611f38565b5050505050565b60085481565b61146a61154f565b600073ffffffffffffffffffffffffffffffffffffffff168173ffffffffffffffffffffffffffffffffffffffff16036114d9576040517f08c379a00000000000000000000000000000000000000000000000000000000081526004016114d090613698565b60405180910390fd5b6114e281611d06565b50565b60007f01ffc9a7000000000000000000000000000000000000000000000000000000007bffffffffffffffffffffffffffffffffffffffffffffffffffffffff1916827bffffffffffffffffffffffffffffffffffffffffffffffffffffffff1916149050919050565b6115576119dd565b73ffffffffffffffffffffffffffffffffffffffff16611575610fd5565b73ffffffffffffffffffffffffffffffffffffffff16146115cb576040517f08c379a00000000000000000000000000000000000000000000000000000000081526004016115c290613704565b60405180910390fd5b565b6000818311156115dd57816115df565b825b905092915050565b600073ffffffffffffffffffffffffffffffffffffffff168473ffffffffffffffffffffffffffffffffffffffff1603611656576040517f08c379a000000000000000000000000000000000000000000000000000000000815260040161164d90613796565b60405180910390fd5b60006116606119dd565b9050600061166d856121d3565b9050600061167a856121d3565b905061168b8360008985858961224d565b8460008088815260200190815260200160002060008973ffffffffffffffffffffffffffffffffffffffff1673ffffffffffffffffffffffffffffffffffffffff16815260200190815260200160002060008282546116ea91906137b6565b925050819055508673ffffffffffffffffffffffffffffffffffffffff16600073ffffffffffffffffffffffffffffffffffffffff168473ffffffffffffffffffffffffffffffffffffffff167fc3d58168c5ae7397731d063d5bbf3d657854427343f4c083240f7aacaa2d0f6289896040516117689291906137ea565b60405180910390a461177f83600089858589612255565b61178e8360008989898961225d565b50505050505050565b600073ffffffffffffffffffffffffffffffffffffffff168373ffffffffffffffffffffffffffffffffffffffff1603611806576040517f08c379a00000000000000000000000000000000000000000000000000000000081526004016117fd90613885565b60405180910390fd5b60006118106119dd565b9050600061181d846121d3565b9050600061182a846121d3565b905061184a8387600085856040518060200160405280600081525061224d565b600080600087815260200190815260200160002060008873ffffffffffffffffffffffffffffffffffffffff1673ffffffffffffffffffffffffffffffffffffffff168152602001908152602001600020549050848110156118e1576040517f08c379a00000000000000000000000000000000000000000000000000000000081526004016118d890613917565b60405180910390fd5b84810360008088815260200190815260200160002060008973ffffffffffffffffffffffffffffffffffffffff1673ffffffffffffffffffffffffffffffffffffffff16815260200190815260200160002081905550600073ffffffffffffffffffffffffffffffffffffffff168773ffffffffffffffffffffffffffffffffffffffff168573ffffffffffffffffffffffffffffffffffffffff167fc3d58168c5ae7397731d063d5bbf3d657854427343f4c083240f7aacaa2d0f6289896040516119ae9291906137ea565b60405180910390a46119d484886000868660405180602001604052806000815250612255565b50505050505050565b600033905090565b8151835114611a29576040517f08c379a0000000000000000000000000000000000000000000000000000000008152600401611a20906139a9565b60405180910390fd5b600073ffffffffffffffffffffffffffffffffffffffff168473ffffffffffffffffffffffffffffffffffffffff1603611a98576040517f08c379a0000000000000000000000000000000000000000000000000000000008152600401611a8f90613a3b565b60405180910390fd5b6000611aa26119dd565b9050611ab281878787878761224d565b60005b8451811015611c63576000858281518110611ad357611ad2613543565b5b602002602001015190506000858381518110611af257611af1613543565b5b60200260200101519050600080600084815260200190815260200160002060008b73ffffffffffffffffffffffffffffffffffffffff1673ffffffffffffffffffffffffffffffffffffffff16815260200190815260200160002054905081811015611b93576040517f08c379a0000000000000000000000000000000000000000000000000000000008152600401611b8a90613acd565b60405180910390fd5b81810360008085815260200190815260200160002060008c73ffffffffffffffffffffffffffffffffffffffff1673ffffffffffffffffffffffffffffffffffffffff168152602001908152602001600020819055508160008085815260200190815260200160002060008b73ffffffffffffffffffffffffffffffffffffffff1673ffffffffffffffffffffffffffffffffffffffff1681526020019081526020016000206000828254611c4891906137b6565b9250508190555050505080611c5c90613572565b9050611ab5565b508473ffffffffffffffffffffffffffffffffffffffff168673ffffffffffffffffffffffffffffffffffffffff168273ffffffffffffffffffffffffffffffffffffffff167f4a39dc06d4c0dbc64b70af90fd698a233a518aa5d07e595d983b8c0526c8f7fb8787604051611cda929190613aed565b60405180910390a4611cf0818787878787612255565b611cfe818787878787612434565b505050505050565b6000600360009054906101000a900473ffffffffffffffffffffffffffffffffffffffff16905081600360006101000a81548173ffffffffffffffffffffffffffffffffffffffff021916908373ffffffffffffffffffffffffffffffffffffffff1602179055508173ffffffffffffffffffffffffffffffffffffffff168173ffffffffffffffffffffffffffffffffffffffff167f8be0079c531659141344cd1fd0a4f28419497f9722a3daafe3b4186f6b6457e060405160405180910390a35050565b8173ffffffffffffffffffffffffffffffffffffffff168373ffffffffffffffffffffffffffffffffffffffff1603611e3a576040517f08c379a0000000000000000000000000000000000000000000000000000000008152600401611e3190613b96565b60405180910390fd5b80600160008573ffffffffffffffffffffffffffffffffffffffff1673ffffffffffffffffffffffffffffffffffffffff16815260200190815260200160002060008473ffffffffffffffffffffffffffffffffffffffff1673ffffffffffffffffffffffffffffffffffffffff16815260200190815260200160002060006101000a81548160ff0219169083151502179055508173ffffffffffffffffffffffffffffffffffffffff168373ffffffffffffffffffffffffffffffffffffffff167f17307eab39ab6107e8899845ad3d59bd9653f200f220920489ca2b5937696c3183604051611f2b91906127e0565b60405180910390a3505050565b600073ffffffffffffffffffffffffffffffffffffffff168473ffffffffffffffffffffffffffffffffffffffff1603611fa7576040517f08c379a0000000000000000000000000000000000000000000000000000000008152600401611f9e90613a3b565b60405180910390fd5b6000611fb16119dd565b90506000611fbe856121d3565b90506000611fcb856121d3565b9050611fdb83898985858961224d565b600080600088815260200190815260200160002060008a73ffffffffffffffffffffffffffffffffffffffff1673ffffffffffffffffffffffffffffffffffffffff16815260200190815260200160002054905085811015612072576040517f08c379a000000000000000000000000000000000000000000000000000000000815260040161206990613acd565b60405180910390fd5b85810360008089815260200190815260200160002060008b73ffffffffffffffffffffffffffffffffffffffff1673ffffffffffffffffffffffffffffffffffffffff168152602001908152602001600020819055508560008089815260200190815260200160002060008a73ffffffffffffffffffffffffffffffffffffffff1673ffffffffffffffffffffffffffffffffffffffff168152602001908152602001600020600082825461212791906137b6565b925050819055508773ffffffffffffffffffffffffffffffffffffffff168973ffffffffffffffffffffffffffffffffffffffff168573ffffffffffffffffffffffffffffffffffffffff167fc3d58168c5ae7397731d063d5bbf3d657854427343f4c083240f7aacaa2d0f628a8a6040516121a49291906137ea565b60405180910390a46121ba848a8a86868a612255565b6121c8848a8a8a8a8a61225d565b505050505050505050565b60606000600167ffffffffffffffff8111156121f2576121f161290c565b5b6040519080825280602002602001820160405280156122205781602001602082028036833780820191505090505b509050828160008151811061223857612237613543565b5b60200260200101818152505080915050919050565b505050505050565b505050505050565b61227c8473ffffffffffffffffffffffffffffffffffffffff1661260b565b1561242c578373ffffffffffffffffffffffffffffffffffffffff1663f23a6e6187878686866040518663ffffffff1660e01b81526004016122c2959493929190613c0b565b6020604051808303816000875af19250505080156122fe57506040513d601f19601f820116820180604052508101906122fb9190613c7a565b60015b6123a35761230a613cb4565b806308c379a003612366575061231e613cd6565b806123295750612368565b806040517f08c379a000000000000000000000000000000000000000000000000000000000815260040161235d91906128e5565b60405180910390fd5b505b6040517f08c379a000000000000000000000000000000000000000000000000000000000815260040161239a90613dd8565b60405180910390fd5b63f23a6e6160e01b7bffffffffffffffffffffffffffffffffffffffffffffffffffffffff1916817bffffffffffffffffffffffffffffffffffffffffffffffffffffffff19161461242a576040517f08c379a000000000000000000000000000000000000000000000000000000000815260040161242190613e6a565b60405180910390fd5b505b505050505050565b6124538473ffffffffffffffffffffffffffffffffffffffff1661260b565b15612603578373ffffffffffffffffffffffffffffffffffffffff1663bc197c8187878686866040518663ffffffff1660e01b8152600401612499959493929190613e8a565b6020604051808303816000875af19250505080156124d557506040513d601f19601f820116820180604052508101906124d29190613c7a565b60015b61257a576124e1613cb4565b806308c379a00361253d57506124f5613cd6565b80612500575061253f565b806040517f08c379a000000000000000000000000000000000000000000000000000000000815260040161253491906128e5565b60405180910390fd5b505b6040517f08c379a000000000000000000000000000000000000000000000000000000000815260040161257190613dd8565b60405180910390fd5b63bc197c8160e01b7bffffffffffffffffffffffffffffffffffffffffffffffffffffffff1916817bffffffffffffffffffffffffffffffffffffffffffffffffffffffff191614612601576040517f08c379a00000000000000000000000000000000000000000000000000000000081526004016125f890613e6a565b60405180910390fd5b505b505050505050565b6000808273ffffffffffffffffffffffffffffffffffffffff163b119050919050565b6000604051905090565b600080fd5b600080fd5b600073ffffffffffffffffffffffffffffffffffffffff82169050919050565b600061266d82612642565b9050919050565b61267d81612662565b811461268857600080fd5b50565b60008135905061269a81612674565b92915050565b6000819050919050565b6126b3816126a0565b81146126be57600080fd5b50565b6000813590506126d0816126aa565b92915050565b600080604083850312156126ed576126ec612638565b5b60006126fb8582860161268b565b925050602061270c858286016126c1565b9150509250929050565b61271f816126a0565b82525050565b600060208201905061273a6000830184612716565b92915050565b60007fffffffff0000000000000000000000000000000000000000000000000000000082169050919050565b61277581612740565b811461278057600080fd5b50565b6000813590506127928161276c565b92915050565b6000602082840312156127ae576127ad612638565b5b60006127bc84828501612783565b91505092915050565b60008115159050919050565b6127da816127c5565b82525050565b60006020820190506127f560008301846127d1565b92915050565b60006020828403121561281157612810612638565b5b600061281f8482850161268b565b91505092915050565b60006020828403121561283e5761283d612638565b5b600061284c848285016126c1565b91505092915050565b600081519050919050565b600082825260208201905092915050565b60005b8381101561288f578082015181840152602081019050612874565b60008484015250505050565b6000601f19601f8301169050919050565b60006128b782612855565b6128c18185612860565b93506128d1818560208601612871565b6128da8161289b565b840191505092915050565b600060208201905081810360008301526128ff81846128ac565b905092915050565b600080fd5b7f4e487b7100000000000000000000000000000000000000000000000000000000600052604160045260246000fd5b6129448261289b565b810181811067ffffffffffffffff821117156129635761296261290c565b5b80604052505050565b600061297661262e565b9050612982828261293b565b919050565b600067ffffffffffffffff8211156129a2576129a161290c565b5b602082029050602081019050919050565b600080fd5b60006129cb6129c684612987565b61296c565b905080838252602082019050602084028301858111156129ee576129ed6129b3565b5b835b81811015612a175780612a0388826126c1565b8452602084019350506020810190506129f0565b5050509392505050565b600082601f830112612a3657612a35612907565b5b8135612a468482602086016129b8565b91505092915050565b600080fd5b600067ffffffffffffffff821115612a6f57612a6e61290c565b5b612a788261289b565b9050602081019050919050565b82818337600083830152505050565b6000612aa7612aa284612a54565b61296c565b905082815260208101848484011115612ac357612ac2612a4f565b5b612ace848285612a85565b509392505050565b600082601f830112612aeb57612aea612907565b5b8135612afb848260208601612a94565b91505092915050565b600080600080600060a08688031215612b2057612b1f612638565b5b6000612b2e8882890161268b565b9550506020612b3f8882890161268b565b945050604086013567ffffffffffffffff811115612b6057612b5f61263d565b5b612b6c88828901612a21565b935050606086013567ffffffffffffffff811115612b8d57612b8c61263d565b5b612b9988828901612a21565b925050608086013567ffffffffffffffff811115612bba57612bb961263d565b5b612bc688828901612ad6565b9150509295509295909350565b600067ffffffffffffffff821115612bee57612bed61290c565b5b602082029050602081019050919050565b6000612c12612c0d84612bd3565b61296c565b90508083825260208201905060208402830185811115612c3557612c346129b3565b5b835b81811015612c5e5780612c4a888261268b565b845260208401935050602081019050612c37565b5050509392505050565b600082601f830112612c7d57612c7c612907565b5b8135612c8d848260208601612bff565b91505092915050565b60008060408385031215612cad57612cac612638565b5b600083013567ffffffffffffffff811115612ccb57612cca61263d565b5b612cd785828601612c68565b925050602083013567ffffffffffffffff811115612cf857612cf761263d565b5b612d0485828601612a21565b9150509250929050565b600081519050919050565b600082825260208201905092915050565b6000819050602082019050919050565b612d43816126a0565b82525050565b6000612d558383612d3a565b60208301905092915050565b6000602082019050919050565b6000612d7982612d0e565b612d838185612d19565b9350612d8e83612d2a565b8060005b83811015612dbf578151612da68882612d49565b9750612db183612d61565b925050600181019050612d92565b5085935050505092915050565b60006020820190508181036000830152612de68184612d6e565b905092915050565b612df781612662565b82525050565b6000602082019050612e126000830184612dee565b92915050565b612e21816127c5565b8114612e2c57600080fd5b50565b600081359050612e3e81612e18565b92915050565b60008060408385031215612e5b57612e5a612638565b5b6000612e698582860161268b565b9250506020612e7a85828601612e2f565b9150509250929050565b6000819050919050565b6000612ea9612ea4612e9f84612642565b612e84565b612642565b9050919050565b6000612ebb82612e8e565b9050919050565b6000612ecd82612eb0565b9050919050565b612edd81612ec2565b82525050565b6000602082019050612ef86000830184612ed4565b92915050565b60008060408385031215612f1557612f14612638565b5b6000612f238582860161268b565b9250506020612f348582860161268b565b9150509250929050565b600080600080600060a08688031215612f5a57612f59612638565b5b6000612f688882890161268b565b9550506020612f798882890161268b565b9450506040612f8a888289016126c1565b9350506060612f9b888289016126c1565b925050608086013567ffffffffffffffff811115612fbc57612fbb61263d565b5b612fc888828901612ad6565b9150509295509295909350565b7f455243313135353a2061646472657373207a65726f206973206e6f742061207660008201527f616c6964206f776e657200000000000000000000000000000000000000000000602082015250565b6000613031602a83612860565b915061303c82612fd5565b604082019050919050565b6000602082019050818103600083015261306081613024565b9050919050565b7f54686520416464726573732063616e6e6f74206265206e756c6c000000000000600082015250565b600061309d601a83612860565b91506130a882613067565b602082019050919050565b600060208201905081810360008301526130cc81613090565b9050919050565b7f4e487b7100000000000000000000000000000000000000000000000000000000600052602260045260246000fd5b6000600282049050600182168061311a57607f821691505b60208210810361312d5761312c6130d3565b5b50919050565b7f4e6f7420417574686f7269736564204163636573730000000000000000000000600082015250565b6000613169601583612860565b915061317482613133565b602082019050919050565b600060208201905081810360008301526131988161315c565b9050919050565b60006040820190506131b46000830185612dee565b6131c16020830184612716565b9392505050565b6000815190506131d7816126aa565b92915050565b6000602082840312156131f3576131f2612638565b5b6000613201848285016131c8565b91505092915050565b7f4e6f7420656e6f75676820576174657221000000000000000000000000000000600082015250565b6000613240601183612860565b915061324b8261320a565b602082019050919050565b6000602082019050818103600083015261326f81613233565b9050919050565b7f4e6f7420656e6f75676820456e65726779210000000000000000000000000000600082015250565b60006132ac601283612860565b91506132b782613276565b602082019050919050565b600060208201905081810360008301526132db8161329f565b9050919050565b7f4e487b7100000000000000000000000000000000000000000000000000000000600052601260045260246000fd5b7f4e487b7100000000000000000000000000000000000000000000000000000000600052601160045260246000fd5b600061334b826126a0565b9150613356836126a0565b925082613366576133656132e2565b5b828204905092915050565b600061337c826126a0565b9150613387836126a0565b9250828202613395816126a0565b915082820484148315176133ac576133ab613311565b5b5092915050565b7f455243313135353a2063616c6c6572206973206e6f7420746f6b656e206f776e60008201527f6572206e6f7220617070726f7665640000000000000000000000000000000000602082015250565b600061340f602f83612860565b915061341a826133b3565b604082019050919050565b6000602082019050818103600083015261343e81613402565b9050919050565b7f4d696e696d756d20616d6f756e742063616e6e6f74206265207a65726f000000600082015250565b600061347b601d83612860565b915061348682613445565b602082019050919050565b600060208201905081810360008301526134aa8161346e565b9050919050565b7f455243313135353a206163636f756e747320616e6420696473206c656e67746860008201527f206d69736d617463680000000000000000000000000000000000000000000000602082015250565b600061350d602983612860565b9150613518826134b1565b604082019050919050565b6000602082019050818103600083015261353c81613500565b9050919050565b7f4e487b7100000000000000000000000000000000000000000000000000000000600052603260045260246000fd5b600061357d826126a0565b91507fffffffffffffffffffffffffffffffffffffffffffffffffffffffffffffffff82036135af576135ae613311565b5b600182019050919050565b7f496e76616c696420616d6f756e74206f6620456e657267790000000000000000600082015250565b60006135f0601883612860565b91506135fb826135ba565b602082019050919050565b6000602082019050818103600083015261361f816135e3565b9050919050565b7f4f776e61626c653a206e6577206f776e657220697320746865207a65726f206160008201527f6464726573730000000000000000000000000000000000000000000000000000602082015250565b6000613682602683612860565b915061368d82613626565b604082019050919050565b600060208201905081810360008301526136b181613675565b9050919050565b7f4f776e61626c653a2063616c6c6572206973206e6f7420746865206f776e6572600082015250565b60006136ee602083612860565b91506136f9826136b8565b602082019050919050565b6000602082019050818103600083015261371d816136e1565b9050919050565b7f455243313135353a206d696e7420746f20746865207a65726f2061646472657360008201527f7300000000000000000000000000000000000000000000000000000000000000602082015250565b6000613780602183612860565b915061378b82613724565b604082019050919050565b600060208201905081810360008301526137af81613773565b9050919050565b60006137c1826126a0565b91506137cc836126a0565b92508282019050808211156137e4576137e3613311565b5b92915050565b60006040820190506137ff6000830185612716565b61380c6020830184612716565b9392505050565b7f455243313135353a206275726e2066726f6d20746865207a65726f206164647260008201527f6573730000000000000000000000000000000000000000000000000000000000602082015250565b600061386f602383612860565b915061387a82613813565b604082019050919050565b6000602082019050818103600083015261389e81613862565b9050919050565b7f455243313135353a206275726e20616d6f756e7420657863656564732062616c60008201527f616e636500000000000000000000000000000000000000000000000000000000602082015250565b6000613901602483612860565b915061390c826138a5565b604082019050919050565b60006020820190508181036000830152613930816138f4565b9050919050565b7f455243313135353a2069647320616e6420616d6f756e7473206c656e6774682060008201527f6d69736d61746368000000000000000000000000000000000000000000000000602082015250565b6000613993602883612860565b915061399e82613937565b604082019050919050565b600060208201905081810360008301526139c281613986565b9050919050565b7f455243313135353a207472616e7366657220746f20746865207a65726f20616460008201527f6472657373000000000000000000000000000000000000000000000000000000602082015250565b6000613a25602583612860565b9150613a30826139c9565b604082019050919050565b60006020820190508181036000830152613a5481613a18565b9050919050565b7f455243313135353a20696e73756666696369656e742062616c616e636520666f60008201527f72207472616e7366657200000000000000000000000000000000000000000000602082015250565b6000613ab7602a83612860565b9150613ac282613a5b565b604082019050919050565b60006020820190508181036000830152613ae681613aaa565b9050919050565b60006040820190508181036000830152613b078185612d6e565b90508181036020830152613b1b8184612d6e565b90509392505050565b7f455243313135353a2073657474696e6720617070726f76616c2073746174757360008201527f20666f722073656c660000000000000000000000000000000000000000000000602082015250565b6000613b80602983612860565b9150613b8b82613b24565b604082019050919050565b60006020820190508181036000830152613baf81613b73565b9050919050565b600081519050919050565b600082825260208201905092915050565b6000613bdd82613bb6565b613be78185613bc1565b9350613bf7818560208601612871565b613c008161289b565b840191505092915050565b600060a082019050613c206000830188612dee565b613c2d6020830187612dee565b613c3a6040830186612716565b613c476060830185612716565b8181036080830152613c598184613bd2565b90509695505050505050565b600081519050613c748161276c565b92915050565b600060208284031215613c9057613c8f612638565b5b6000613c9e84828501613c65565b91505092915050565b60008160e01c9050919050565b600060033d1115613cd35760046000803e613cd0600051613ca7565b90505b90565b600060443d10613d6357613ce861262e565b60043d036004823e80513d602482011167ffffffffffffffff82111715613d10575050613d63565b808201805167ffffffffffffffff811115613d2e5750505050613d63565b80602083010160043d038501811115613d4b575050505050613d63565b613d5a8260200185018661293b565b82955050505050505b90565b7f455243313135353a207472616e7366657220746f206e6f6e204552433131353560008201527f526563656976657220696d706c656d656e746572000000000000000000000000602082015250565b6000613dc2603483612860565b9150613dcd82613d66565b604082019050919050565b60006020820190508181036000830152613df181613db5565b9050919050565b7f455243313135353a204552433131353552656365697665722072656a6563746560008201527f6420746f6b656e73000000000000000000000000000000000000000000000000602082015250565b6000613e54602883612860565b9150613e5f82613df8565b604082019050919050565b60006020820190508181036000830152613e8381613e47565b9050919050565b600060a082019050613e9f6000830188612dee565b613eac6020830187612dee565b8181036040830152613ebe8186612d6e565b90508181036060830152613ed28185612d6e565b90508181036080830152613ee68184613bd2565b9050969550505050505056fea2646970667358221220c6a128f72e7474e470224dc6bb11f1145ab30ec07bf2142a0a8903c9d36e85e964736f6c63430008110033",
  "devdoc": {
    "kind": "dev",
    "methods": {
      "balanceOf(address,uint256)": {
        "details": "See {IERC1155-balanceOf}. Requirements: - `account` cannot be the zero address."
      },
      "balanceOfBatch(address[],uint256[])": {
        "details": "See {IERC1155-balanceOfBatch}. Requirements: - `accounts` and `ids` must have the same length."
      },
      "isApprovedForAll(address,address)": {
        "details": "See {IERC1155-isApprovedForAll}."
      },
      "owner()": {
        "details": "Returns the address of the current owner."
      },
      "renounceOwnership()": {
        "details": "Leaves the contract without owner. It will not be possible to call `onlyOwner` functions anymore. Can only be called by the current owner. NOTE: Renouncing ownership will leave the contract without an owner, thereby removing any functionality that is only available to the owner."
      },
      "safeBatchTransferFrom(address,address,uint256[],uint256[],bytes)": {
        "details": "See {IERC1155-safeBatchTransferFrom}."
      },
      "safeTransferFrom(address,address,uint256,uint256,bytes)": {
        "details": "See {IERC1155-safeTransferFrom}."
      },
      "setApprovalForAll(address,bool)": {
        "details": "See {IERC1155-setApprovalForAll}."
      },
      "supportsInterface(bytes4)": {
        "details": "See {IERC165-supportsInterface}."
      },
      "transferOwnership(address)": {
        "details": "Transfers ownership of the contract to a new account (`newOwner`). Can only be called by the current owner."
      },
      "uri(uint256)": {
        "details": "See {IERC1155MetadataURI-uri}. This implementation returns the same URI for *all* token types. It relies on the token type ID substitution mechanism https://eips.ethereum.org/EIPS/eip-1155#metadata[defined in the EIP]. Clients calling this function must replace the `\\{id\\}` substring with the actual token type ID."
      }
    },
    "version": 1
  },
  "userdoc": {
    "kind": "user",
    "methods": {},
    "version": 1
  },
  "storageLayout": {
    "storage": [
      {
        "astId": 138,
        "contract": "contracts/HydrogenProductions.sol:SUPPLYHYDROGEN",
        "label": "_balances",
        "offset": 0,
        "slot": "0",
        "type": "t_mapping(t_uint256,t_mapping(t_address,t_uint256))"
      },
      {
        "astId": 144,
        "contract": "contracts/HydrogenProductions.sol:SUPPLYHYDROGEN",
        "label": "_operatorApprovals",
        "offset": 0,
        "slot": "1",
        "type": "t_mapping(t_address,t_mapping(t_address,t_bool))"
      },
      {
        "astId": 146,
        "contract": "contracts/HydrogenProductions.sol:SUPPLYHYDROGEN",
        "label": "_uri",
        "offset": 0,
        "slot": "2",
        "type": "t_string_storage"
      },
      {
        "astId": 7,
        "contract": "contracts/HydrogenProductions.sol:SUPPLYHYDROGEN",
        "label": "_owner",
        "offset": 0,
        "slot": "3",
        "type": "t_address"
      },
      {
        "astId": 1888,
        "contract": "contracts/HydrogenProductions.sol:SUPPLYHYDROGEN",
        "label": "h2Token",
        "offset": 0,
        "slot": "4",
        "type": "t_contract(IERC1155)1457"
      },
      {
        "astId": 1890,
        "contract": "contracts/HydrogenProductions.sol:SUPPLYHYDROGEN",
        "label": "WATER_PROVIDER",
        "offset": 0,
        "slot": "5",
        "type": "t_address"
      },
      {
        "astId": 1892,
        "contract": "contracts/HydrogenProductions.sol:SUPPLYHYDROGEN",
        "label": "RENEWABLES_PROVIDER",
        "offset": 0,
        "slot": "6",
        "type": "t_address"
      },
      {
        "astId": 1894,
        "contract": "contracts/HydrogenProductions.sol:SUPPLYHYDROGEN",
        "label": "FUEL_GENERATOR",
        "offset": 0,
        "slot": "7",
        "type": "t_address"
      },
      {
        "astId": 1897,
        "contract": "contracts/HydrogenProductions.sol:SUPPLYHYDROGEN",
        "label": "decimalUnit",
        "offset": 0,
        "slot": "8",
        "type": "t_uint256"
      },
      {
        "astId": 1899,
        "contract": "contracts/HydrogenProductions.sol:SUPPLYHYDROGEN",
        "label": "waterRequired",
        "offset": 0,
        "slot": "9",
        "type": "t_uint256"
      },
      {
        "astId": 1901,
        "contract": "contracts/HydrogenProductions.sol:SUPPLYHYDROGEN",
        "label": "electricityRequired",
        "offset": 0,
        "slot": "10",
        "type": "t_uint256"
      }
    ],
    "types": {
      "t_address": {
        "encoding": "inplace",
        "label": "address",
        "numberOfBytes": "20"
      },
      "t_bool": {
        "encoding": "inplace",
        "label": "bool",
        "numberOfBytes": "1"
      },
      "t_contract(IERC1155)1457": {
        "encoding": "inplace",
        "label": "contract IERC1155",
        "numberOfBytes": "20"
      },
      "t_mapping(t_address,t_bool)": {
        "encoding": "mapping",
        "key": "t_address",
        "label": "mapping(address => bool)",
        "numberOfBytes": "32",
        "value": "t_bool"
      },
      "t_mapping(t_address,t_mapping(t_address,t_bool))": {
        "encoding": "mapping",
        "key": "t_address",
        "label": "mapping(address => mapping(address => bool))",
        "numberOfBytes": "32",
        "value": "t_mapping(t_address,t_bool)"
      },
      "t_mapping(t_address,t_uint256)": {
        "encoding": "mapping",
        "key": "t_address",
        "label": "mapping(address => uint256)",
        "numberOfBytes": "32",
        "value": "t_uint256"
      },
      "t_mapping(t_uint256,t_mapping(t_address,t_uint256))": {
        "encoding": "mapping",
        "key": "t_uint256",
        "label": "mapping(uint256 => mapping(address => uint256))",
        "numberOfBytes": "32",
        "value": "t_mapping(t_address,t_uint256)"
      },
      "t_string_storage": {
        "encoding": "bytes",
        "label": "string",
        "numberOfBytes": "32"
      },
      "t_uint256": {
        "encoding": "inplace",
        "label": "uint256",
        "numberOfBytes": "32"
      }
    }
  }
}